:1009A500410018004100190041001F00C10142002B
:0F09B50016000044001A00000000420014000069
:0B07C000900026EBF0A3EAF0A3E9F0A4
:1007CB00E4FFFE900026E0FBA3E0FAA3E0F98F82A2
:1007DB008E83120026601B900026E0A3E0A3E00F9F
:1007EB00EFAC0670010E14F5828C83120026F5997E
:0207FB0080D1AB
:0107FD0022D9
:0402FA00AB07AA069E
:1002FE00900010E4F0A3740FF0900010E0FEA3E065
:10030E002400F58274003EF583E4F0EBAE02781F14
:10031E00CEC313CE13D8F9FF900012EEF0A3EFF078
:10032E004E600DEBF4FFEAF4FEEF2401FBE43EFA1F
:10033E00900011E024FFF0900010E034FFF07C00FC
:10034E007D0AAF03AE02120065ED2430FFE0FCA380
:10035E00E02400F58274003CF583EFF07C007D0A0A
:10036E00AF03AE02120065AA06AB07EB4A70C1904E
:10037E000012E07002A3E0601E900011E024FFF076
:10038E00900010E034FFF0E0FEA3E02400F582744C
:10039E00003EF583742DF0900010E0FEA3E02400E3
:0A03AE00F974003EFA7B011207C04B
:0103B8002222
:1006E800A2AF9200C2AF75C7AA75C755E4F591A22B
:1006F8000092AF53B3FD43B402A2AF9200C2AF75EC
:10070800C7AA75C755F591A20092AF53B3F743B482
:1007180008A2AF9200C2AF75C7AA75C755F591A2D6
:0A0728000092AF53B3EF43B4102268
:0408E600AD07AC06A8
:1008EA00E4FBFAAFD1EF7F00FEABD9E42BFFEA3E7F
:1008FA00CF2401CF3400FE1200537C007D64120025
:0F090A0065AA06AB07EAF5D2EFF5DAD2DED2DF47
:0109190022BB
:08047100900020EEF0A3EFF073
:10047900A31201D300000000A2AF9200C2AF75C75A
:10048900AA75C755E4F591A20092AF53B3FB43B4E3
:100499000443DE0153DF3F53DFF843DF04900022BA
:1004A9001201D30016E360900022E0FCA3E0FDA353
:1004B900E0FEA3E0FFC006C007900020E0FEA3E035
:1004C900FFFBAA06E4F9F8D007D00612010C900048
:1004D900221201C7900022E0FCA3E0FDA3E0FEA3E5
:1004E900E024FFFFEE34FFFEED34FFFDEC34FFFCAA
:1004F9009000221201C7900022E0FCA3E0FDA3E0D6
:10050900FEA3E0FF78081201B48FD1900022E0FC2D
:0C051900A3E0FDA3E0FEA3E0FFE48FD907
:0105250022B3
:10052600900014E475F0011200BAFEC3E5F0940FD2
:10053600EE940050030205BFE4900014F0A3F0907F
:10054600001AE0FCA3E0FDA3E0FEA3E05401FFE4F3
:10055600FEFDFCEF60047F0180027F00EF602E90BD
:10056600001FE0FF04F0EF6464704E90001AE0FC98
:10057600A3E0FDA3E0FEA3E054FEFFEEEDEC900049
:100586001A1201C790001F7464F0C2912290001FD6
:10059600E0FF14F0EFB4012190001AE0FCA3E0FDA7
:1005A600A3E0FEA3E04401FFEEEDEC90001A120179
:0905B600C790001F7401F0D291FE
:0105BF002219
:100984007F007E7D12047190001AE0FCA3E0FDA3B9
:10099400E0FEA3E04401FFEEEDEC90001A1201C763
:0109A4002230
:1007FE0090001AE0FCA3E0FDA3E0FEA3E05420FF6E
:10080E00E4FEFDFCEF60047F0180027F00EF6019C3
:10081E0090001AE0FCA3E0FDA3E0FEA3E054DFFF8E
:0A082E00EEEDEC90001A1201C72253
:1008380090001AE0FCA3E0FDA3E0FEA3E05410FF43
:10084800E4FEFDFCEF60047F0180027F00EF601989
:1008580090001AE0FCA3E0FDA3E0FEA3E054EFFF44
:0A086800EEEDEC90001A1201C72219
:1008720090001AE0FCA3E0FDA3E0FEA3E05408FF11
:10088200E4FEFDFCEF60047F0180027F00EF60194F
:1008920090001AE0FCA3E0FDA3E0FEA3E054F7FF02
:0A08A200EEEDEC90001A1201C722DF
:1008AC0090001AE0FCA3E0FDA3E0FEA3E05404FFDB
:1008BC00E4FEFDFCEF60047F0180027F00EF601915
:1008CC0090001AE0FCA3E0FDA3E0FEA3E054FBFFC4
:0A08DC00EEEDEC90001A1201C722A5
:1007320090001AE0FCA3E0FDA3E0FEA3E05402FF58
:10074200E4FEFDFCEF60047F0180027F00EF602683
:1007520090001AE0FCA3E0FDA3E0FEA3E054FDFF3D
:10076200EEEDEC90001A1201C712052690001FE070
:07077200FF7E001208E622E1
:1009C5001207321208AC1208721208381207FE22FA
:10020400900017E004F07006900016E004F09000EF
:100214001AE0FCA3E0FDA3E0FEA3E04402FFEEED40
:10022400EC90001A1201C7900016E0FEA3E0FF7CD8
:10023400007D0A120065ED4C701990001AE0FCA3D1
:10024400E0FDA3E0FEA3E04404FFEEEDEC90001A11
:100254001201C7900016E0FEA3E0FF7C007D64124B
:100264000065ED4C701990001AE0FCA3E0FDA3E0DA
:10027400FEA3E04408FFEEEDEC90001A1201C790D3
:100284000016E0FEA3E0FF7C037DE8120065ED4C60
:10029400701990001AE0FCA3E0FDA3E0FEA3E04483
:1002A40010FFEEEDEC90001A1201C7900016E0FE6C
:1002B400A3E0FF7C137D88120065ED4C701990005B
:1002C4001AE0FCA3E0FDA3E0FEA3E04420FFEEED72
:1002D400EC90001A1201C7900016E0FEA3E0FFE4C0
:1002E400FCFD7BDC7AFFF9F8D312019E5007E49001
:0602F4000016F0A3F02249
:0400030012020422BF
:03000B0002077970
:10077900C0E0C0F0C083C082C0D075D000C000C046
:1007890001C002C003C004C005C006C0079000181C
:10079900E0F58CA3E0F58AC28D120003D007D006DC
:1007A900D005D004D003D002D001D000D0D0D0825F
:0707B900D083D0F0D0E03244
:10093F00E4900020F0A3F05389F043890190001850
:10094F0074F8F0A37430F0758CF8F58AD2A9D2AF91
:02095F00D28C38
:010961002273
:030023000209626D
:10096200C0E0C083C08230980AD20190001EE5998F
:10097200F0C298309905200202C299D082D083D069
:02098200E03261
:1003B9009000201201D30001C200A2AF9200C2AF87
:1003C90075C7AA75C755E4F591A20092AF53B1BF9D
:1003D90053B2BF75985043878053C4F8A2AF9200B7
:1003E900C2AF75C7AA75C755F591A20092AF43C4AC
:1003F90020900020E0F8A3E0F9A3E0FAA3E0FB7F56
:10040900607EE37D167C0012010CC3E49FFFE49E2D
:10041900FE74019DFDE49CFC78081201B48FC6901E
:100429000020E0F8A3E0F9A3E0FAA3E0FB7F607EF7
:10043900E37D167C0012010CC3E49FFFE49EFE7469
:10044900019DFDE49CFCEFE48FC5A2AF9200C2AF11
:1004590075C7AA75C755F591A20092AF43C408D2D2
:07046900ACD2AFD299D20220
:010470002269
:10065A00E58720E4030206E7A2AF9200C2AF75C79E
:10066A00AA75C755439F01A20092AF75A638E4F553
:10067A00A775AF04A2AF9200C2AF75C7AA75C755D6
:10068A0043A401A20092AF85AE0875A639F5A7A2C8
:10069A00AF9200C2AF75C7AA75C75543A401A2009D
:1006AA0092AF85AE09A2AF9200C2AF75C7AA75C74D
:1006BA0055539FFEA20092AF75C7AA75C755850804
:1006CA008475C7AA75C755850985A2AF9200C2AFBE
:0D06DA0075C7AA75C755539FFEA20092AFC9
:0106E70022F0
:10091A0012065AA2AF9200C2AF75C7AA75C755E4AC
:10092A00F591A20092AFF5B1F5B2F5B3F5B4F5AC15
:05093A00F5ADD2AF2273
:10000E0012091A1203B91206E812098412093F12D4
:05001E0009C580FB2272
:030000000205C036
:1005C000787FE4F6D8FD9000007FFF7E03E4F0A37F
:0A05D000DFFCDEFA7581200206153B
:1005DA0002000EE493A3F8E493A34003F68001F229
:1005EA0008DFF48029E493A3F85407240CC8C33322
:1005FA00C4540F4420C8834004F456800146F6DFF1
:10060A00E4800B01020408102040809009A5E47ED2
:10061A00019360BCA3FF543F30E509541FFEE493E5
:10062A00A360010ECF54C025E060A840B8E493A3AC
:10063A00FAE493A3F8E493A3C8C582C8CAC583CAD7
:10064A00F0A3C8C582C8CAC583CADFE9DEE780BE8F
:0109C4000032
:10002600BB010CE58229F582E5833AF583E022508F
:1000360006E92582F8E622BBFE06E92582F8E222D9
:0D004600E58229F582E5833AF583E49322F3
:10005300EF8DF0A4A8F0CF8CF0A428CE8DF0A42EC1
:02006300FE227B
:10006500BC000BBE0029EF8DF084FFADF022E4CC7F
:10007500F875F008EF2FFFEE33FEEC33FCEE9DEC48
:10008500984005FCEE9DFE0FD5F0E9E4CEFD22ED8E
:10009500F8F5F0EE8420D21CFEADF075F008EF2FD8
:1000A500FFED33FD4007985006D5F0F222C398FDC9
:0500B5000FD5F0EA2266
:1000BA00C5F0F8A3E028F0C5F0F8E58215827002D1
:0600CA001583E038F0226E
:1000D00075F008758200EF2FFFEE33FECD33CDCCE7
:1000E00033CCC58233C5829BED9AEC99E58298406A
:1000F0000CF582EE9BFEED9AFDEC99FC0FD5F0D647
:10010000E4CEFBE4CDFAE4CCF9A88222B800C1B970
:100110000059BA002DEC8BF084CFCECDFCE5F0CBAE
:10012000F97818EF2FFFEE33FEED33FDEC33FCEBE7
:1001300033FB10D703994004EB99FB0FD8E5E4F9A2
:10014000FA227818EF2FFFEE33FEED33FDEC33FC8F
:10015000C933C910D7059BE99A4007EC9BFCE99A83
:10016000F90FD8E0E4C9FAE4CCFB2275F010EF2FC8
:10017000FFEE33FEED33FDCC33CCC833C810D707C8
:100180009BEC9AE899400AED9BFDEC9AFCE899F803
:0E0190000FD5F0DAE4CDFBE4CCFAE4C8F92296
:10019E00EB9FF5F0EA9E42F0E99D42F0EC6480C8D8
:0601AE0064809845F02278
:1001B400E8600FECC313FCED13FDEE13FEEF13FF29
:0301C400D8F1224D
:0C01C700ECF0A3EDF0A3EEF0A3EFF022AB
:1001D300A8828583F0D083D0821201EA1201EA1249
:1001E30001EA1201EAE473E493A3C583C5F0C5836E
:1001F300C8C582C8F0A3C583C5F0C583C8C582C876
:0102030022D8
:00000001FF
